:100000000C9462000C948A000C948A000C948A0070
:100010000C948A000C948A000C948A000C948A0038
:100020000C948A000C948A000C948A000C948A0028
:100030000C948A000C948A000C948A000C948A0018
:100040000C94C3020C948A000C9433030C940D039B
:100050000C948A000C948A000C948A000C948A00F8
:100060000C948A000C948A000000000024002700F1
:100070002A0000000000250028002B0000000000DE
:1000800023002600290004040404040404040202DA
:100090000202020203030303030301020408102007
:1000A0004080010204081020010204081020000012
:1000B0000008000201000003040700000000000027
:1000C0000000E50411241FBECFEFD8E0DEBFCDBF96
:1000D00011E0A0E0B1E0E8E7FAE002C005900D927F
:1000E000AA32B107D9F721E0AAE2B1E001C01D921E
:1000F000A83DB207E1F710E0C2E6D0E004C02197C6
:10010000FE010E943405C136D107C9F70E9465037C
:100110000C943A050C940000833081F028F481306F
:1001200099F08230A9F008958730A9F08830C9F09D
:100130008430B1F4809180008F7D03C08091800075
:100140008F7780938000089584B58F7784BD08955C
:1001500084B58F7DFBCF8091B0008F778093B00006
:1001600008958091B0008F7DF9CFCF93DF93282F32
:1001700030E0F901E255FF4F8491F901E656FF4F57
:10018000D491F901EA57FF4FC491CC23A1F081111A
:100190000E948C00EC2FF0E0EE0FFF1FE458FF4FA1
:1001A000A591B491EC91ED2381E090E009F480E019
:1001B000DF91CF91089580E090E0FACF1F93CF9325
:1001C000DF93282F30E0F901E255FF4F8491F901C8
:1001D000E656FF4FD491F901EA57FF4FC491CC2363
:1001E000A9F0162F81110E948C00EC2FF0E0EE0F89
:1001F000FF1FEE58FF4FA591B4918FB7F894EC9183
:10020000111108C0D095DE23DC938FBFDF91CF9111
:100210001F910895DE2BF8CFCF93DF9390E0FC0180
:10022000E656FF4F24918A579F4FFC018491882303
:10023000D1F090E0880F991FFC01E859FF4FA5917C
:10024000B491FC01EE58FF4FC591D49161110EC0DD
:100250009FB7F8948C91E22FE0958E238C932881A0
:10026000E223E8839FBFDF91CF9108958FB7F89481
:10027000EC91E22BEC938FBFF6CFAF92BF92CF926F
:10028000DF92EF92FF920F931F93CF93DF936C0156
:100290007B018B01040F151FEB015E01AE18BF0837
:1002A000C017D10759F06991D601ED91FC910190E9
:1002B000F081E02DC6010995892B79F7C501DF9101
:1002C000CF911F910F91FF90EF90DF90CF90BF9053
:1002D000AF900895FC01538D448D252F30E0842F7D
:1002E00090E0821B930B541710F0CF96089501975E
:1002F0000895FC01918D828D981761F0A28DAE0F4B
:10030000BF2FB11D5D968C91928D9F5F9F73928FD1
:1003100090E008958FEF9FEF0895FC01918D828DFD
:10032000981731F0828DE80FF11D858D90E00895CA
:100330008FEF9FEF0895FC01918D228D892F90E022
:10034000805C9F4F821B91098F73992708958BE3DF
:1003500091E00E949B0121E0892B09F420E0822F8B
:10036000089580E090E0892B29F00E94A701811177
:100370000C9400000895FC01A48DA80FB92FB11DA5
:10038000A35ABF4F2C91848D90E001968F739927CB
:10039000848FA689B7892C93A089B1898C918370A9
:1003A00080648C93938D848D981306C00288F389A2
:1003B000E02D80818F7D80830895EF92FF920F93CF
:1003C0001F93CF93DF93EC0181E0888F9B8D8C8D01
:1003D00098131AC0E889F989808185FF15C09FB7F5
:1003E000F894EE89FF896083E889F98980818370B8
:1003F000806480839FBF81E090E0DF91CF911F9167
:100400000F91FF90EF900895F62E0B8D10E00F5F87
:100410001F4F0F731127E02E8C8D8E110CC00FB65D
:1004200007FCFACFE889F989808185FFF5CFCE01F5
:100430000E94BB01F1CFEB8DEC0FFD2FF11DE35AB4
:10044000FF4FF0829FB7F8940B8FEA89FB89808178
:100450008062CFCFCF93DF93EC01888D8823B9F0F2
:10046000AA89BB89E889F9898C9185FD03C08081BF
:1004700086FD0DC00FB607FCF7CF8C9185FFF2CF3C
:10048000808185FFEDCFCE010E94BB01E9CFDF91D6
:10049000CF910895FC0101900020E9F73197AF0159
:1004A000481B590BBC018BE391E00C943D018F92EA
:1004B0009F92AF92BF920F931F93CF93DF93CDB7CD
:1004C000DEB7A1970FB6F894DEBF0FBECDBF19A25D
:1004D000423008F44AE08E010F5D1F4F842E912CAC
:1004E000B12CA12CA50194010E941205E62FB9019F
:1004F000CA01EA30F4F4E05DD801EE938D01232BBC
:10050000242B252B79F790E080E0109719F0CD018E
:100510000E944A02A1960FB6F894DEBF0FBECDBF6F
:10052000DF91CF911F910F91BF90AF909F908F90CF
:100530000895E95CE1CFCF92DF92EF92FF92CF93E3
:10054000DF936B017C016DE28BE391E00E94DD01A2
:10055000EC0166277727CB016C197D098E099F096D
:100560004AE00E9457028C0F9D1FDF91CF91FF90B0
:10057000EF90DF90CF900895BC01990F880B990BF5
:100580004AE00C9457021F920F920FB60F9211245B
:100590002F933F938F939F93AF93BF938091370196
:1005A00090913801A0913901B0913A013091360112
:1005B00023E0230F2D3758F50196A11DB11D20937F
:1005C00036018093370190933801A0933901B0939D
:1005D0003A018091320190913301A0913401B091A0
:1005E00035010196A11DB11D809332019093330115
:1005F000A0933401B0933501BF91AF919F918F913A
:100600003F912F910F900FBE0F901F90189526E8E5
:10061000230F0296A11DB11DD2CF1F920F920FB6CC
:100620000F9211242F933F934F935F936F937F9378
:100630008F939F93AF93BF93EF93FF938BE391E0DF
:100640000E94BB01FF91EF91BF91AF919F918F915C
:100650007F916F915F914F913F912F910F900FBEBE
:100660000F901F9018951F920F920FB60F921124A2
:100670002F938F939F93EF93FF93E0914B01F09112
:100680004C018081E0915101F091520182FD1BC02B
:100690009081809154018F5F8F7320915501821753
:1006A00041F0E0915401F0E0E55CFE4F958F8093BE
:1006B0005401FF91EF919F918F912F910F900FBE59
:1006C0000F901F9018958081F4CF789484B5826044
:1006D00084BD84B5816084BD85B5826085BD85B5E6
:1006E000816085BD80916E00816080936E00109264
:1006F00081008091810082608093810080918100DF
:10070000816080938100809180008160809380006F
:100710008091B10084608093B1008091B0008160CD
:100720008093B00080917A00846080937A008091F9
:100730007A00826080937A0080917A008160809351
:100740007A0080917A00806880937A001092C100CC
:1007500060E082E00E940C0160E083E00E940C01F6
:1007600060E084E00E940C0160E085E00E940C01E2
:1007700061E08AE00E940C0161E08BE00E940C01C4
:1007800061E08CE00E940C0161E08DE00E940C01B0
:10079000E0914B01F0914C0182E08083E0914701B0
:1007A000F09148011082E0914901F0914A018FECEB
:1007B000808310925301E0914F01F091500186E047
:1007C0008083E0914D01F0914E01808180618083B2
:1007D000E0914D01F0914E01808188608083E0912D
:1007E0004D01F0914E01808180688083E0914D0140
:1007F000F0914E0180818F7D808300E010E02FB763
:10080000F8948091370190913801A0913901B0910D
:100810003A012FBF80932E0190932F01A0933001B6
:10082000B093310182E00E94B5004C01FF24F394A3
:10083000892B09F4F12C83E00E94B5005C01C1E032
:10084000892B09F4C0E084E00E94B5006C01EE241D
:10085000E394892B09F4E12C85E00E94B500AC01FA
:1008600071E0892B09F470E0D1E0C114D10409F0E2
:10087000D0E031E0A114B10409F030E0AC28BD288B
:1008800081E04115510509F080E0AC2FA823E1E09B
:10089000892809F0E0E09A2F9E23F72FFD23B72F38
:1008A000B323CF2CCB2261E0A114B10409F060E0A6
:1008B000D62EDF20D92A632F6F23D62ADC288E215B
:1008C0006F2D6823DC23DE23DC298323D82BD62B52
:1008D000E722A42AB52A21E0AB2809F020E0AF21C5
:1008E0002A2BBE23B22BFE20FB2A962BCF23C92B0B
:1008F000EF23CE2B3E21C32B6D2D8AE00E94DE001C
:100900006D2F8BE00E94DE006F2D8CE00E94DE00D8
:100910006C2F8DE00E94DE008C2F90E00E94BC02C4
:100920008F2D90E00E94BC028D2F90E00E94BC02AF
:100930006D2D70E090E080E04AE00E94570282E175
:1009400091E00E944A022FB7F8948091370190916C
:100950003801A0913901B0913A012FBF80932A014B
:1009600090932B01A0932C01B0932D0185E191E090
:100970000E944A0260912A0170912B0180912C0102
:1009800090912D01C0902E01D0902F01E090300168
:10099000F09031016C197D098E099F094AE00E948F
:1009A000570285E291E00E944A0282E191E00E94B2
:1009B0004A020115110509F422CF0E94A7018823DC
:1009C00009F41DCF0E9400001ACFEBE3F1E013827F
:1009D000128288EE93E0A0E0B0E084839583A68342
:1009E000B78384E091E09183808385EC90E09587E4
:1009F000848784EC90E09787868780EC90E0918BE9
:100A0000808B81EC90E0938B828B82EC90E0958BD5
:100A1000848B86EC90E0978B868B118E128E138ED2
:100A2000148E0895A1E21A2EAA1BBB1BFD010DC056
:100A3000AA1FBB1FEE1FFF1FA217B307E407F5078E
:100A400020F0A21BB30BE40BF50B661F771F881F6A
:100A5000991F1A9469F760957095809590959B0100
:100A6000AC01BD01CF010895EE0FFF1F0590F49179
:080A7000E02D0994F894FFCF7A
:100A780000000000DD013D016A012A029B017901A5
:100A88008D010D0A00457865637574696F6E205491
:0A0A9800696D653A00206D730000DF
:00000001FF
